:100000000A128A11D02F0800F5007508803E0A16E2
:100010008A15A2230A128A110800F5000F3075050F
:10002000F3000A30F0007508F40004300310F40CFB
:10003000FF3E031D162874080A168A157B230A1230
:100040008A1173070800831203133D088400831389
:100050000008BF00840A0008C0004008FF003F08F5
:1000600084000A168A155F210A128A11253A031D97
:100070003A283B2867293D08840001308313800714
:10008000840A0318800AE901EA010030EF00FF301A
:10009000EB00FF30EC00C3016F28EF143D08840033
:1000A000013083138007840A0318800A6F28013007
:1000B000C3006F283D08840083130008BF00840A32
:1000C0000008C0004008FF003F0884000A168A1597
:1000D0005F210A128A11303A03194D285728430824
:1000E0000319732874285A283D08F6003E08F700C3
:1000F0000A168A1195200A128A11770883120313AF
:10010000EA007608E900EA1F862887288D286F1400
:10011000E909EA09E90A0319EA0A3D088400831398
:100120000008C800840A00088403C9004908FF00C9
:10013000480884000A168A155F210A128A11643A57
:100140000319A328A428B2284908FF0048088400FE
:100150000A168A155F210A128A11693A031DB1280D
:10016000B228E3283E08840083130008FF00023011
:1001700080077F0884000008C400840A0008C500C6
:100180000130BF003F084807C1004908C0000318FC
:10019000C00ABF1BC0034008C2003D0884004108DC
:1001A00080004208840A800084033B08AF003C08BA
:1001B000B0004508B2004408B1000A168A11452370
:1001C0000A128A1188294908FF00480884000A1683
:1001D0008A155F210A128A11753A031DF028F12849
:1001E00030293E08840083130008FF000230800796
:1001F0007F0884000008C400840A0008C50001309C
:10020000BF003F084807C1004908C0000318C00AE2
:10021000BF1BC0034008C2003D08840041088000A5
:100220004208840A8000840323293B08AF003C086D
:10023000B0004508B2004408B1000A168A117821BE
:100240000A128A1188294908FF00480884000A1602
:100250008A155F210A128A11753A03191529302966
:100260003D08840083130008BF00840A0008C00012
:100270004008FF003F0884000A168A155F210A1211
:100280008A11253A031D452946295C293D08840029
:10029000013083138007840A0318800A2530F00098
:1002A0000030F1003B08F2003C08F3000A168A1106
:1002B000F7210A128A118829831203133D0884004A
:1002C000013083138007840A0318800A88293D08B7
:1002D000840083130008BF00840A0008C00040089F
:1002E000FF003F0884000A168A155F210A128A114E
:1002F000C100C2014108F0004208F1003B08F200D1
:100300003C08F3000A168A11F7210A128A115C29A7
:10031000080083160317880189010430831603132C
:100320008500043086001830870001308800831271
:10033000031385018601870188010A168A112B2083
:100340000A128A110A168A155B230A128A110A16E2
:100350008A15C0250A128A110A168A158E230A12D6
:100360008A1183160317BD01BE01B7011230B80010
:100370000B30B9001930BA00B201B301B401B501B4
:10038000BB01013083120313E80083160313EA0153
:1003900083160317BC010130AE00AF0183160313AF
:1003A000EB0183160317A1010130A2000030A30066
:1003B000FF30B000A801B601A901B10101300A1651
:1003C0008A15A2230A128A110D3083160313B00076
:1003D000FB30AF00AF0BEA29B00BEA2900300A125C
:1003E0008A1104200A128A11B830F5009830F600FC
:1003F0000A168A1555240A128A1140300A128A11E7
:1004000004200A128A112830F5009930F6000A16E5
:100410008A1555240A128A11403083160313B1003D
:100420006A30B0009730AF00AF0B142AB00B142A1B
:10043000B10B142A01300A168A15A2230A128A1156
:100440000D3083160313B000FB30AF00AF0B262A2C
:10045000B00B262A00300A128A1104200A128A11CF
:100460000930F5009930F6000A168A1555240A124B
:100470008A111A3083160313B1005E30B0006D305C
:10048000AF00AF0B412AB00B412AB10B412A482AD9
:100490000A168A1109240A128A11003A0319512AEC
:1004A000522A902A013083160317BC0001300A1625
:1004B0008A15A2230A128A110D3083160313B00085
:1004C000FB30AF00AF0B622AB00B622A00300A1279
:1004D0008A1104200A128A115830F5009930F6006A
:1004E0000A168A1555240A128A1127308316031317
:1004F000B1000D30B0002530AF00AF0B7D2AB00B3E
:100500007D2AB10B7D2A842A2B3083120313A40089
:100510009830A5000A168A1113250A128A11BD2ADD
:1005200001300A168A15A2230A128A110D30831689
:100530000313B000FB30AF00AF0B9C2AB00B9C2A1A
:1005400000300A128A1104200A128A114E30F50076
:100550009930F6000A168A1555240A128A1133308A
:1005600083160313B100BB30B000DF30AF00AF0B18
:10057000B72AB00BB72AB10BB72A01300A168A1571
:10058000A2230A128A110D3083160313B000FB3028
:10059000AF00AF0BC92AB00BC92ABD30F600BE3080
:1005A000F700B730F8000A168A15A4260A128A1135
:1005B000B830F600B930F700BA30F8000A168A15DC
:1005C00055260A128A11831203136803031DE92AB0
:1005D000EA2A1D2B0519ED2AEE2A1D2B023083165F
:1005E0000313B1004530B000A930AF00AF0BF62ABD
:1005F000B00BF62AB10BF62A831203130519012B4F
:10060000022B1D2B013083160317BB0703303B025F
:10061000031C0B2B0C2B0D2BBB0101300A168A156A
:10062000A2230A128A110D3083160313B000FB3087
:10063000AF00AF0B192BB00B192B83120313050C52
:1006400083160313AF002F0C013983120313E80044
:100650006430831603136A02031C2F2B302BAD2B3F
:10066000AA3083120313D400EC30D5000A168A1185
:1006700040260A128A11003A03193F2B402BA62B61
:10068000831603172D08F7002C08F6002B08F50039
:100690002A08F4003F30F3000030F2000030F1008F
:1006A0000030F0000A128A1562220A128A117308B9
:1006B00083120313AB007208AA007108A900700826
:1006C000A8000A168A1102210A128A118312031342
:1006D000290883160317B30083120313280883160F
:1006E0000317B200831603136F08F7006E08F600B5
:1006F0006D08F5006C08F4003F30F3000030F200A4
:100700000030F1000030F0000A128A1562220A124D
:100710008A11730883120313AB007208AA007108D0
:10072000A9007008A8000A168A1102210A128A116B
:1007300083120313290883160317B50083120313CA
:10074000280883160317B400AE01AA2B01308316C4
:100750000317AE0083160313EA010130EA0783167C
:1007600003173C080319B52BB62B9B2D2E08031D30
:10077000BA2BBB2B9B2D2108031DBF2BC02B9B2D00
:100780002908031DC42BC52BCD2B3E08A8003D080E
:10079000B6003E08B0000130A90083160313E8013B
:1007A000E9018316031736083D02031CD82BD92B09
:1007B000212C3D0883160313AF00B0012F08F00071
:1007C0003008F1003C30F2000030F3000A168A15C0
:1007D00030240A128A11831603173E087007831605
:1007E0000313B1000030031801307107B200831603
:1007F0000317360883160313B300B4013308F0005F
:100800003408F100C430F200FF30F3000A168A15F4
:1008100030240A128A117008831603133107B500B9
:1008200071080318710A3207B600831603172808E7
:10083000831603133502E8003608031C3603E9006B
:10084000702C3D0883160313AF00B0012F08F00091
:100850003008F1003C30F2000030F3000A168A152F
:1008600030240A128A11831603173E087007831674
:100870000313B1000030031801307107B200831672
:100880000317360883160313B300B4013308F000CE
:100890003408F100C430F200FF30F3000A168A1564
:1008A00030240A128A117008831603133107B50029
:1008B00071080318710A3207B6003608B8008316AB
:1008C00003172808831603133502B700031CB80367
:1008D0003708A03EE80038080318013E053EE9004D
:1008E00001306902683003196802031C782C792CE6
:1008F000C92C83160317BC0101300A168A15A223DE
:100900000A128A110D3083160313B000FB30AF00BA
:10091000AF0B882CB00B882C00300A128A110420EF
:100920000A128A113630F5009930F6000A168A1537
:1009300055240A128A1140300A128A1104200A1220
:100940008A114330F5009930F6000A168A155524AD
:100950000A128A11333083160313B100BB30B00082
:10096000DF30AF00AF0BB22CB00BB22CB10BB22CFE
:1009700001300A168A15A2230A128A110D30831635
:100980000313B000FB30AF00AF0BC42CB00BC42C72
:100990009B2D8316031730083E02A400A501031CFB
:1009A000A503A51FD42CD52CDB2C3C30A4070318A1
:1009B000A50A0030A5072508803AFF0080307F0295
:1009C000031DE42C05302402031CE72CE82C9B2D8E
:1009D000BB3083120313D1000030D2000030D300AB
:1009E0009830D40083160317230883120313D6000C
:1009F00083160317220883120313D50083160317E7
:100A0000380883160313AF00B0012F0883120313B5
:100A1000D70083160313300883120313D8008316FC
:100A20000317390883160313B100B201310883128A
:100A30000313D90083160313320883120313DA0059
:100A4000831603173A0883160313B300B40133085F
:100A500083120313DB00831603133408831203137A
:100A6000DC00831603173D0883160313B500B60197
:100A7000350883120313DD0083160313360883122F
:100A80000313DE00831603173E0883160313B70013
:100A9000B801370883120313DF00831603133808E5
:100AA00083120313E000831603173708831603131A
:100AB000B900BA01390883120313E1008316031346
:100AC0003A0883120313E2008316031733088312D4
:100AD0000313E40083160317320883120313E300A1
:100AE00083160317350883120313E60083160317D2
:100AF000340883120313E5000A168A157C250A12AE
:100B00008A11BB3083120313A4000030A5000A161B
:100B10008A1113250A128A11013083160317A207BE
:100B20000318A30A0030A3073E08B0000130AF004D
:100B300083160313EB01831603172F080319A12D46
:100B4000A22DB22D013083160313EB0732306B0256
:100B5000031CAB2DAC2DB22D83160317AF018316EA
:100B60000313EB01831603173C080319B82DB92DA5
:100B7000D82D29080319BD2DBE2DD82D30083E02D1
:100B8000A600A701031CA703A71FC72DC82DCE2DA4
:100B90003C30A6070318A70A0030A7072608053C23
:100BA000B10006303102031CD62DD72DD82DB1014E
:100BB0003B08031DDC2DDD2D802E00300A128A112A
:100BC00004200A128A11903083120313D1000130DD
:100BD000D2005B30D3009830D400831603173D0851
:100BE00083160313AF00B0012F0883120313D5003F
:100BF00083160313300883120313D60083160317DA
:100C00003E0883160313B100B201310883120313A7
:100C1000D70083160313320883120313D8008316F8
:100C20000317370883160313B300B4013308831284
:100C30000313D90083160313340883120313DA0055
:100C40000A168A157C250A128A119030F5000130A7
:100C5000F6000A168A1555240A128A1140300A1223
:100C60008A1104200A128A11903083120313D100D2
:100C70000130D2007030D3009830D40083160317AF
:100C8000380883160313AF00B0012F088312031333
:100C9000D50083160313300883120313D60083167E
:100CA0000317390883160313B100B2013108831208
:100CB0000313D70083160313320883120313D800DB
:100CC000831603173A0883160313B300B4013308DD
:100CD00083120313D90083160313340883120313FA
:100CE000DA000A168A157C250A128A119030F5005E
:100CF0000130F6000A168A1555240A128A11C22FED
:100D00003B03031D842E852E2B2F00300A128A11DF
:100D100004200A128A11831603172E080319912E34
:100D2000922E9C2EF930F5009830F6000A168A159E
:100D300055240A128A11CC2E903083120313D1004D
:100D40000130D200A730D3009830D40083160317A7
:100D5000330883120313D600831603173208831255
:100D60000313D50083160317350883120313D80025
:100D700083160317340883120313D7000A168A1543
:100D80007C250A128A119030F5000130F6000A160F
:100D90008A1555240A128A1140300A128A11042039
:100DA0000A128A118316031721080319D82ED92E87
:100DB000E32E9630F5009830F6000A168A15552471
:100DC0000A128A11C22F3C08031DE72EE82EF22ECC
:100DD0008530F5009830F6000A168A1555240A1257
:100DE0008A11C22F2F080319F62EF72E012FE93092
:100DF000F5009830F6000A168A1555240A128A1151
:100E0000C22F903083120313D1000130D200D930A9
:100E1000D3009830D40083160317310883160313C8
:100E2000AF00B0012F0883120313D50083160313FC
:100E3000300883120313D6000A168A157C250A127D
:100E40008A119030F5000130F6000A168A155524F3
:100E50000A128A11C22F00300A128A1104200A12C3
:100E60008A11903083120313D1000130D20019305F
:100E7000D3009930D400831603172208FF3E831253
:100E80000313D5008316031723080318013EFF3E02
:100E900083120313D6000A168A157C250A128A11BA
:100EA0009030F5000130F6000A168A1555240A1212
:100EB0008A1140300A128A1104200A128A118316FC
:100EC00003173C08031D652F662F702FC930F500EE
:100ED0009830F6000A168A1555240A128A11C22F74
:100EE000903083120313D1000130D2004530D3007B
:100EF0009830D400831603173D0883160313AF0000
:100F0000B0012F0883120313D50083160313300892
:100F100083120313D600831603173E0883160313A8
:100F2000B100B201310883120313D70083160313F3
:100F3000320883120313D800831603173308831271
:100F40000313DA0083160317320883120313D90040
:100F500083160317350883120313DC008316031767
:100F6000340883120313DB000A168A157C250A1243
:100F70008A119030F5000130F6000A168A155524C2
:100F80000A128A11823083160313B000DD30AF00DD
:100F9000AF0BC82FB00BC82FCD2A0A128A11002818
:100FA000831603170A128A1502200A128A11DF001B
:100FB0000A128A1503200A128A11E0000A128A1501
:100FC00004200A128A11E1000A128A1505200A1269
:100FD0008A11E2008317BF308400DF300A168A15B9
:100FE0001D230A128A1183120313E901EA01EB019E
:100FF000EC01ED01EE01EF0183010A128A1189294A
:10100400643400340034003483120313A300FF302B
:10101400A0002308031D0F28102812289530A000D3
:1010240008302306031D172818281A288730A00023
:10103400FF300A168A1501250A128A158312031332
:10104400230840380A168A1501250A128A157508DC
:10105400F9007608FA007708FB007808FC001830DD
:101064000310FC0CFB0CFA0CF90CFF3E031D322898
:1010740079080A168A1501250A128A157508F900D5
:101084007608FA007708FB007808FC00103003109B
:10109400FC0CFB0CFA0CF90CFF3E031D49287908E3
:1010A4000A168A1501250A128A157508F9007608A8
:1010B400FA007708FB007808FC0008300310FC0CE9
:1010C400FB0CFA0CF90CFF3E031D602879080A1684
:1010D4008A1501250A128A1575080A168A1501252A
:1010E4000A128A158312031320080A168A15012589
:1010F4000A128A1583120313A201FF300A168A15F5
:1011040001250A128A1583120313A100A11B8B283F
:101114008C288E28210897280130A2070A30220241
:10112400031C952896287F28FF3008008312031398
:101134002708B1008030B1052708A8002807B800A7
:10114400A61FA528A628A728381438080319AB28F1
:10115400AC28BC28380A031DB028B128B9280030AF
:10116400A7000030A6000030A5000030A400A61798
:10117400A701C4280030A7000030A6000030A50055
:101184000030A40023088039B1062308A8002807EA
:10119400B900A21FCE28CF28D02839143908031942
:1011A400D428D528E528390A031DD928DA28E228C5
:1011B4000030A3000030A2000030A1000030A000E5
:1011C400A217A301ED280030A3000030A2000030D4
:1011D400A1000030A0002308220421042004031DE0
:1011E400F428F5280C290030A7000030A6000030B0
:1011F400A5000030A4008030A6047F30A704310885
:10120400A7042708A3002608A2002508A100240893
:10121400A000612A3808031D102911291A29003059
:10122400A3000030A2000030A1000030A000612A19
:101234003808A800A9012908AB0039082802AA0027
:10124400031CAB032A087F3EB2002B080318013E9F
:10125400003EB3002708B0002608AF002508AE0002
:101264002408AD000030A7000030A6000030A5001F
:101274000030A4000030B7000030B6000030B500E4
:101284000030B400B9018E29390803194A294B29C1
:101294006B290130A8000310AD0DAE0DAF0DB00DDC
:1012A400A80B4D290130A8000310A40DA50DA60D0F
:1012B400A70DA80B5629B71F602961296229241498
:1012C4000130A8000310B40DB50DB60DB70DA80B71
:1012D400642923083002031D792922082F02031DE3
:1012E400792921082E02031D792920082D02031CC7
:1012F4007C297D298C2937172008AD022108031C7D
:10130400210FAE022208031C220FAF022308031C84
:10131400230FB0020130B9071A303902031C932994
:101324009429462930082F042E042D0403199B29DF
:101334009C29BB293414BB290130A8000310A40D37
:10134400A50DA60DA70DA80BA029B71FAA29AB2987
:10135400AC2924140130A8000310B40DB50DB60D4A
:10136400B70DA80BAE29FF30B2070318B30AFF303C
:10137400B307A61FBE29BF299E29B901B71FC329D8
:10138400C429E029FF303405A800FF303505A90041
:10139400FF303605AA007F303705AB002B082A043E
:1013A400290428040319D729D829DB290130B900D5
:1013B400E029241CDE29DF29E029D829390803196A
:1013C400E429E529162A0130A40700300318013066
:1013D400A507003003180130A607003003180130B8
:1013E400A707271CF629F729162A2408A800250888
:1013F400A9002608AA002708AB000130AC002B0D79
:10140400AB0CAA0CA90CA80CAC0B012A2B08A70046
:101414002A08A6002908A5002808A4000130B2075C
:101424000318B30A0030B3073308803AFF00803052
:101434007F02031D1F2AFF303202031C222A232AA3
:10144400312AFF3083120313B2000030B30000309E
:10145400A7000030A6000030A5000030A4008312CD
:1014640003133308803AFF0080307F02031D3C2AB7
:101474000130320203183F2A402A4D2A83120313F3
:10148400B201B3010030A7000030A6000030A5006F
:101494000030A400B101831203133208B800381CD1
:1014A400542A552A572AA617592A7F30A6053808E0
:1014B400A8000310280CA7003108A704032908007A
:1014C4007308F8008030F805730883120313A00032
:1014D4002007FA00F21F6F2A702A712A7A147A08F8
:1014E4000319752A762A862A7A0A031D7A2A7B2A00
:1014F400832A0030F3000030F2000030F1000030A5
:10150400F000F217F3018E2A0030F3000030F200ED
:101514000030F1000030F0007708F9008030F90560
:10152400790878060319972A982A992A7817770848
:10153400A0002007F900F61FA02AA12AA22A7914E4
:1015440079080319A62AA72AB72A790A031DAB2A00
:10155400AC2AB42A0030F7000030F6000030F50061
:101564000030F400F617F701BF2A0030F70000300E
:10157400F6000030F5000030F4007A087902031810
:10158400C42AC52AE92A781FC82AC92ACB2A803046
:10159400F8067A08FB007908FA007B08F90070085D
:1015A400FB007408F0007B08F4007108FB00750868
:1015B400F1007B08F5007208FB007608F2007B0856
:1015C400F6007308FB007708F3007B08F700FB01C3
:1015D4007908A000A1012108A3007A082002A20032
:1015E400031CA3032308803AFF0080307F02031DFD
:1015F400FD2A1A302202031C002B012B382B7308FE
:10160400720471047004031D082B0A2B01300B2B88
:101614000030FB000030F3000030F2000030F10035
:101624000030F0007908FA003E2B7B1C1A2B1B2B90
:10163400242B7B0883120313A0000310200C013811
:10164400FB00262B0310FB0C701C292B2A2B2B2BA5
:10165400FB17013083120313A000730DF30CF20C7B
:10166400F10CF00CA00B2F2B0130FA0779087A0249
:10167400031C3D2B3E2B172B781B412B422B8D2B10
:101684007A08031D462B472B502B0030F300003003
:10169400F2000030F1000030F000BD2C7408F007B7
:1016A400750803110318013E0319592BF107760835
:1016B40003110318013E0319602BF2077708031185
:1016C4000318013E0319672BF307731C6A2B6B2B5A
:1016D400452C7B1C6E2B6F2B782B7B0883120313FA
:1016E400A0000310200C0138FB007A2B0310FB0C24
:1016F400701C7D2B7E2B7F2BFB1701308312031371
:10170400A000730DF30CF20CF10CF00CA00B832B66
:101714000130FA07452C7308803AFF007708803AB5
:101724007F02031D9F2B76087202031D9F2B7508F1
:101734007102031D9F2B740870020318A22BA32BA4
:10174400FC2BFF3083120313A000FF30A100FF30F5
:10175400A200FF30A3007408A4007508A500760851
:10176400A6007708A7007008A4027108031C710F73
:10177400BC2BBD2BA5027208031C720FC22BC32BFA
:10178400A6027308031C730FC82BC92BA7022408D5
:10179400A00725080318250FD02BD12BA107260855
:1017A4000318260FD62BD72BA20727080318270ABE
:1017B400A3072308F3002208F2002108F1002008FF
:1017C400F0008030F8067B03FF3AFB007B08031D22
:1017D400EC2BED2B0A2C0130F007003003180130FC
:1017E400F107003003180130F2070030031801300C
:1017F400F3070A2C7408F0027508031C750FF10234
:101804007608031C760FF2027708031C770FF302A5
:101814007308720471047004031D112C122C412CE2
:101824007B08031D162C172C412C0030F3000030CC
:10183400F2000030F1000030F000BD2C01308312C2
:101844000313A0000310F00DF10DF20DF30DA00B26
:10185400242CFB1F2E2C2F2C302C70147B1C332C8F
:10186400342C382C03147B0DFB003A2C0310FB0D95
:101874007A0803193E2C3F2C412C0130FA02F21F46
:10188400442C452C202CF901FB1F492C4A2C582CA4
:101894007B087F3903194F2C502C532C0130F9004D
:1018A400582C701C562C572C582C502C7908031982
:1018B4005C2C5D2C912C0130F007003003180130B2
:1018C400F107003003180130F2070030031801302B
:1018D400F307731C6E2C6F2C912C70088312031366
:1018E400A0007108A1007208A2007308A3000130CF
:1018F400A400230DA30CA20CA10CA00CA40B7B2C04
:101904002308F3002208F2002108F1002008F00067
:101914007A0A03198E2C8F2C912C0130FA077A0A3B
:101924000319952C962C9B2C7A08031D9A2C9B2C1E
:10193400A92C0030F3000030F2000030F100003038
:10194400F0007A08031DA72CA82CA92CF8017A1CF6
:10195400AC2CAD2CAF2CF217B12C7F30F2057A08E9
:1019640083120313A0000310200CF300F81FBB2CF8
:10197400BC2CBD2CF3170800831203133D08C700C9
:101984008030C7053D08C2004207CD00BC1FCB2CE8
:10199400CC2CCD2C4D144D080319D12CD22CE12C78
:1019A4004D0A031DD62CD72CDF2C0030BD0000308F
:1019B400BC000030BB000030BA00BC17E92C00307A
:1019C400BD000030BC000030BB000030BA0041084C
:1019D4008039C7064108C2004207C800C01FF32C63
:1019E400F42CF52C481448080319F92CFA2C092D69
:1019F400480A031DFE2CFF2C072D0030C1000030C7
:101A0400C0000030BF000030BE00C017112D0030F0
:101A1400C1000030C0000030BF000030BE004808E4
:101A24000319152D162D1B2D4D08031D1A2D1B2DC5
:101A3400242D0030BD000030BC000030BB0000305D
:101A4400BA00FF2F3A08F00040080A168A157B24D2
:101A54000A128A15710883120313D3007008D20086
:101A64005208C200C301C401C5014508CC004408A2
:101A7400CB004308CA004208C9005308C200C3018E
:101A8400C401C5014508D1004408D0004308CF0073
:101A94004208CE003B08F0003F080A168A157B2452
:101AA4000A128A15710883120313D3007008D20036
:101AB4005208C200C301C401C5014208C907430852
:101AC40003110318013E0319682DCA0744080311C2
:101AD4000318013E03196F2DCB07450803110318A2
:101AE400013E0319762DCC075308C200C301C4017B
:101AF400C5014208CE07430803110318013E031928
:101B0400842DCF07440803110318013E03198B2DBC
:101B1400D007450803110318013E0319922DD1077C
:101B24003C08F0003E080A168A157B240A128A151E
:101B3400710883120313D3007008D2005208C20044
:101B4400C301C401C5014208C907430803110318AE
:101B5400013E0319AE2DCA07440803110318013EC0
:101B64000319B52DCB07450803110318013E0319CA
:101B7400BC2DCC075308C200C301C401C5014208EF
:101B8400CE07430803110318013E0319CA2DCF07DA
:101B9400440803110318013E0319D12DD007450849
:101BA40003110318013E0319D82DD1070830C200D0
:101BB4000310C90DCA0DCB0DCC0DC20BDA2D3B0899
:101BC400F0003E080A168A157B240A128A15710849
:101BD40083120313D3007008D2005208C2005308C2
:101BE400C300C401C5014208C9074308031103180F
:101BF400013E0319FE2DCA07440803110318013ED0
:101C04000319052ECB07450803110318013E0319D8
:101C14000C2ECC073A08F0003F080A168A157B24DC
:101C24000A128A15710883120313D3007008D200B4
:101C34005208C2005308C300C401C5014208C907C1
:101C4400430803110318013E0319292ECA07440847
:101C540003110318013E0319302ECB074508031165
:101C64000318013E0319372ECC070830C2000310B5
:101C7400C90DCA0DCB0DCC0DC20B392E3A08F0009C
:101C84003E080A168A157B240A128A1571088312E3
:101C94000313D3007008D2005208C2005308C300D3
:101CA400C401C5014208C907430803110318013ED2
:101CB40003195D2ECA07440803110318013E0319D2
:101CC400642ECB07450803110318013E03196B2E3C
:101CD400CC073B08F00040080A168A157B240A1238
:101CE4008A15710883120313D3007008D2005208B6
:101CF400C2005308C300C401C5014208CE0743080B
:101D040003110318013E0319882ECF074408031159
:101D14000318013E03198F2ED00745080311031839
:101D2400013E0319962ED1073C08F0003F080A161D
:101D34008A157B240A128A15710883120313D300AF
:101D44007008D2005208C2005308C300C401C50180
:101D54004208CE07430803110318013E0319B32EAA
:101D6400CF07440803110318013E0319BA2ED00704
:101D7400450803110318013E0319C12ED1073C087D
:101D8400F00040080A168A157B240A128A15710885
:101D940083120313D3007008D2005208C200530800
:101DA400C300C401C50108300310C20DC30DC40D26
:101DB400C50DFF3E031DD62E4208CE07430803116E
:101DC4000318013E0319E72ECF0744080311031833
:101DD400013E0319EE2ED007450803110318013EF6
:101DE4000319F52ED1074908C2004A08C3004B085D
:101DF400C4004C08C50018300310C50CC40CC30C37
:101E0400C20CFF3E031DFE2E4208CE0743080311F9
:101E14000318013E03190F2FCF07440803110318B9
:101E2400013E0319162FD007450803110318013E7C
:101E340003191D2FD1070830C2000310C90DCA0DA4
:101E4400CB0DCC0DC20B1F2F4D084807C200C30198
:101E5400C30D4208823ED20043080318013EFF3EF0
:101E6400D300512F0130C2000310CE0DCF0DD00D81
:101E7400D10DC20B362FCC1F402F412F422F4E14B1
:101E84000130C2000310C90DCA0DCB0DCC0DC20B1D
:101E9400442FFF30D2070318D30AFF30D307D01FD3
:101EA400542F552F342FC801CC1F592F5A2F762F5A
:101EB400FF304905C200FF304A05C300FF304B051F
:101EC400C4007F304C05C500450844044304420463
:101ED40003196D2F6E2F712F0130C800762F4E1C01
:101EE400742F752F762F6E2F480803197A2F7B2FA6
:101EF400AC2F0130CE07003003180130CF0700307B
:101F040003180130D007003003180130D107511CE9
:101F14008C2F8D2FAC2F4E08C2004F08C3005008E1
:101F2400C4005108C5000130C600450DC50CC40CE1
:101F3400C30CC20CC60B972F4508D1004408D0002F
:101F44004308CF004208CE000130D2070318D30A59
:101F54000030D3075308803AFF0080307F02031D0E
:101F6400B52FFF305202031CB82FB92FC42F7F3076
:101F740083120313D1008030D0000030CF00003032
:101F8400CE00F52F831203135308803AFF008030EC
:101F94007F02031DCF2F013052020318D22FD32FFB
:101FA400DF2F003083120313D1000030D000003043
:101FB400CF000030CE00C701F52F8312031352085F
:101FC400CD00FF30CE05FF30CF057F30D005003087
:101FD400D1054D1CEE2FEF2FF02FD0174D08C20066
:101FE4000310420CD1004708D1045108BD00500829
:101FF400BC004F08BB004E08BA000800831203134C
:10200400A601A7011D282508A300A4012308F000A8
:102014002408F1002108F2002208F3000A168A11AC
:10202400F7210A168A11013083120313A607031835
:10203400A70A0030A70726082007A3002308840066
:1020440083170008A5002508031D29282A28052828
:102054000800831603138712071308128812081343
:10206400881383120313871207138230F600DD30BE
:10207400F500F50B3B28F60B3B28402803300A16E5
:102084008A1507260A168A112130F6007630F500E3
:10209400F50B4A28F60B4A28000003300A168A1565
:1020A40007260A168A112130F6007630F500F50B62
:1020B4005928F60B5928000003300A168A150726FA
:1020C4000A168A112130F6007630F500F50B6828DF
:1020D400F60B6828000002300A168A1507260A162D
:1020E4008A1128300A168A15A2230A168A110C307E
:1020F4000A168A15A2230A168A1106300A168A15A8
:10210400A2230A168A1101300A168A15A2230A1676
:102114008A110D30F600FB30F500F50B8F28F60B15
:102124008F2894280800FB01FC017608840083139F
:102134000008F800840A0008F900790883120313E0
:10214400FF00780884000A168A155F210A168A118E
:102154002A3A031DAE28AF28E2287608840001300D
:1021640083138007840A0318800A77088400000810
:10217400FF00023080077F0884000008FB00840A07
:102184000008FC00FD287C08F1007B08F0000A3000
:10219400F2000030F3000A168A1530240A168A1158
:1021A4007A087007FB000030031801307107FC0047
:1021B40076088400013083138007840A0318800A98
:1021C4007608840083130008F800840A0008F900E4
:1021D400790883120313FF00780884000A168A150D
:1021E4005F210A168A11D03EFA000A307A02031CD3
:1021F400FC28FD28C5287C08F7007B08F6000800A9
:102204000310831203132A0D2B0DFD007D08031DFB
:102214000C290D2916290030AB000030AA0000302B
:10222400A9000030A80077292808AC002908AD00CF
:102234002A08AE002B08AF001F300310AF0CAE0C01
:10224400AD0CAC0CFF3E031D1F292C08FC00AA1783
:10225400FF30A805FF30A905FF30AA050030AB0503
:102264009630FD02FD1F3729382950297D08803A10
:10227400973E03183E293F2940290D2901300310B8
:10228400AB0CAA0CA90CA80CFF3E031D412901307C
:10229400FD07031D4E294F294029672920307D025F
:1022A400031C5529562962290D290130AC0003105D
:1022B400A80DA90DAA0DAB0DAC0B59290130FD02D7
:1022C4007D08031D6629672957297C0803196B2992
:1022D4006C297729A809A909AA09AB09A80A03192D
:1022E400A90A0319AA0A0319AB0A080001308312C8
:1022F4000313B3006A08B5006908B4001F30B600C0
:102304000030B70083160317DE01BE29FF30B6077D
:102314000318B70AFF30B7073608BF3E84000A30F7
:10232400F0000030F1003208F3003108F2000A1620
:102334008A15C9240A168A117008303E8317800052
:1023440083120313B301FF30B4070318B50AFF3037
:10235400B5070A30F0000030F1003208F30031080C
:10236400F2000A168A153A250A168A117108831290
:102374000313B2007008B100831203133608370444
:102384000319C529C629E42931083204031DCB29C0
:10239400CC2988293308031DD029D1298829350857
:1023A400803AFF0080307F02031DDA2901303402B5
:1023B400031CDD29DE29E42983120313EF18E32922
:1023C400E4298829831203132F08A8003008A900E0
:1023D4003608BF3EAA003508AC003408AB000A1624
:1023E4008A15F3260A168A11080072087304031961
:1023F400FC29FD29032A72087304031D022A032AF7
:102404000A2A70080A128A1103200A168A11902ACD
:102414007208093EF40073080318013E003EF500FB
:10242400740884008317751C83130008F600840A5B
:102434000008F700760877040319212A222A542A6F
:102444007208093EF40073080318013E003EF500CB
:10245400740884008317751C83130008F600840A2B
:102464000008F7007208023EF80073080318013EE2
:10247400003EF900780884008317791C8313000850
:10248400FA00840A0008FB007B08803AFC00770805
:10249400803A7C02031D502A76087A020318532AD4
:1024A400542A902A720884008317731C831300082B
:1024B400F400840A0008F5007208023EF60073086E
:1024C4000318013E003EF700760884008317771C4A
:1024D400831300087407F9007508F8000318F80A54
:1024E400801F752AF8037808FA0079088400831796
:1024F4007A1C8313700880007208023EF40073088B
:102504000318013E003EF500740884008317751C0F
:10251400831301308007840A0318800A0800F80036
:1025240078080319962A972AAB2AF31F9A2A9B2A1A
:10253400AB2A7009FA007109FB007209FC007309E7
:10254400FD00FA0A0319FB0A0319FC0A0319FD0A20
:10255400B32A7308FD007208FC007108FB007008C0
:10256400FA007308720471047004031DBA2ABB2AAA
:10257400C42A0030F3000030F2000030F1000030D3
:10258400F000442B9630F900D22A0130F9070130CB
:102594000310FD0CFC0CFB0CFA0CFF3E031DCA2AB5
:1025A400FE307D05031DD72AD82AC72AF22A013016
:1025B400F9070130FA07003003180130FB07003037
:1025C40003180130FC07003003180130FD07013007
:1025D4000310FD0CFC0CFB0CFA0CFF3E031DEA2A55
:1025E400FF307D05031DF72AF82AD92A042B013070
:1025F400F9020130F4000310FA0DFB0DFC0DFD0D82
:10260400F40BFD2AFC1B072B082B0E2B023079023E
:1026140003180D2B0E2BF92A7918112B122B1A2BB8
:10262400FF30FA05FF30FB057F30FC05FF30FD0568
:102634000310F90C7908F400F501F601F7011830DC
:102644000310F40DF50DF60DF70DFF3E031D222BBF
:102654007408FA047508FB047608FC047708FD0482
:1026640078080319362B372B3C2BF31F3A2B3B2BC3
:102674003C2BFD177D08F3007C08F2007B08F10079
:102684007A08F0000800013083120313B500B21B6E
:102694004C2B4E2B01304F2B0030B8006A08B7008A
:1026A4006908B60038080319582B592B6F2BFF30D3
:1026B400B6070318B70AFF30B7073808031D632BA2
:1026C400642B692B2B30B3000030B4006D2B2D30FC
:1026D400B3000030B4003308B8001F30B900003034
:1026E400BA0083160317DE01B62BFF30B9070318AF
:1026F400BA0AFF30BA073908BF3E84000A30F00036
:102704000030F1003208F3003108F2000A168A158D
:1027140046270A168A117108F7007008F6000A168F
:102724008A156A230A168A117608303E83178000B8
:1027340083120313B501FF30B6070318B70AFF303D
:10274400B7070A30F0000030F1003208F300310816
:10275400F2000A168A159D270A168A117108831237
:102764000313B2007008B100831203133A08803ACD
:10277400FF0080307F02031DC12B01303902031C8E
:10278400C42BC52BE52B8312031331083204031D1C
:10279400CC2BCD2B772B3508031DD12BD22B772BAC
:1027A4003708803AFF0080307F02031DDB2B0130A5
:1027B4003602031CDE2BDF2BE52B83120313EF18E9
:1027C400E42BE52B772B8312031338080319EB2B27
:1027D400EC2BF82BFF30B9070318BA0AFF30BA07FD
:1027E4003908BF3E84003808831780002F08A800EA
:1027F4003008A9003908BF3EAA003708AC003608E3
:10280400AB000A168A15F3260A168A1108000A165E
:102814008A1542230A168A11831203138616A70106
:10282400FF300A168A1501250A168A11013083120F
:102834000313A7070A302702031C212C222C122C75
:1028440086120D3083120313A500FB30A400A40BE1
:10285400292CA50B292C83120313A801A9010030EC
:10286400F8000030F7000030F6000030F5000030CA
:102874000A128A1506200A168A11013A031D432CEE
:10288400442C452C612C413083120313A500ED30F8
:10289400A400A40B4B2CA50B4B2C502C0130831201
:1028A4000313A8070318A90A0030A9070030290256
:1028B400C83003192802031C602C612C312C003011
:1028C400831203132902C83003192802031C6B2C3A
:1028D4006C2C6F2C86160030122D0030F80000305E
:1028E400F7000130F600AA30F50008300A128A1504
:1028F40006200A168A1183120313A6002603031D59
:10290400842C852C962CA701FF300A168A150125E4
:102914000A168A11013083120313A7070430270211
:10292400031C952C962C862CA801A9010030F800D4
:102934000030F7000030F6000030F50037300A129E
:102944008A1506200A168A114030F8000030F70074
:102954000030F6000030F50029300A128A150620EE
:102964000A168A11003A031DB82CB92CBA2CD62C9D
:10297400413083120313A500ED30A400A40BC02C36
:10298400A50BC02CC52C013083120313A807031810
:10299400A90A0030A90703302902E83003192802E4
:1029A400031CD52CD62C982C033083120313290234
:1029B400E83003192802031CE02CE12CE32C8616D2
:1029C4006D2C0030F8000030F7000230F6000030C3
:1029D400F50010300A128A1506200A168A11003AE8
:1029E4000319F52CF62CFA2C8312031386166D2C7E
:1029F400831203138616FF300A168A1501250A1658
:102A04008A11003083160317E2000030E100003021
:102A1400E0006430DF0083120313ED01EE010130A6
:102A24000800831203132408F0002508F1000A1695
:102A34008A150C240A168A11710883120313AC0038
:102A44007008AB002B086D07A6002C0803182C0A8D
:102A54006E07A70002302702013003192602031C67
:102A6400342D352D492D013083160317DF0700302F
:102A740003180130E007003003180130E10700308B
:102A840003180130E20783120313ED01EE018616E9
:102A9400FF300A168A1501250A168A110D30831291
:102AA4000313A700FB30A600A60B562DA70B562D2B
:102AB4008312031386120D3083120313A700FB3015
:102AC400A600A60B632DA70B632D831603176208BC
:102AD400F8006108F7006008F6005F08F500183098
:102AE4000A128A1506200A168A1183120313AD00EE
:102AF4002D0803197E2D7F2D812D86163F2E0D3036
:102B040083120313A700FB30A600A60B872DA70B87
:102B1400872DFE300A168A1501250A168A1183129A
:102B24000313AE01AF016E082F02031D9B2D6D0828
:102B34002E02031C9E2D9F2DCA2D2B086D07A60067
:102B44002C0803182C0A6E07A70027082F02031D60
:102B5400AD2D26082E020318B02DB12DCA2D25083F
:102B6400A7006D082402A600031CA7032E0826074D
:102B7400840027080318270AFF000A168A155F2114
:102B84000A168A110A168A1501250A168A11D02DE9
:102B940000300A168A1501250A168A11013083129B
:102BA4000313AE070318AF0A0030AF0702302F0239
:102BB400003003192E02031CE02DE12D952DFF306A
:102BC4000A168A1501250A168A11FF300A168A1573
:102BD40001250A168A11FF300A168A1501250A16DC
:102BE4008A1183120313AD001F302D05A600053092
:102BF40026060319FE2DFF2D012E86163F2EA90150
:102C0400AA01192EFF300A168A1501250A168A11FF
:102C140083120313AD002D0A031D112E122E132E41
:102C2400222E0130A9070318AA0A0030AA07FD3092
:102C34002A02E83003192902031C212E222E042E15
:102C44008616FF300A168A1501250A168A110230E3
:102C540083120313A8004530A700A930A600A60BD1
:102C6400312EA70B312EA80B312E831203132B0800
:102C7400ED070318EE0A2C08EE0708008316031369
:102C840008108312031308100D3083120313D700A6
:102C9400FB30D600D60B4C2ED70B4C2E83120313CD
:102CA4000814313083120313D600D60B572E831623
:102CB4000313081483120313E701752E612E622E89
:102CC4000000013083120313E70765306702031C19
:102CD4006C2E6D2E752E83160313081083120313A6
:102CE40008140030FF2F0818782E792E602EE70183
:102CF4008F2E7C2E7D2E0000013083120313E707F4
:102D040065306702031C872E882E8F2E83160313CB
:102D14000810831203130814732E081C922E932E8A
:102D24007B2EE701A92E962E972E000001308312E8
:102D34000313E70765306702031CA12EA22EA92EF8
:102D4400831603130810831203130814732E081830
:102D5400AC2EAD2E952EE601DD01E501E701C62E70
:102D6400B32EB42E0000013083120313E70765303D
:102D74006702031CBE2EBF2EC62E83160313081033
:102D8400831203130814732E081CC92ECA2EB22EE4
:102D9400313083120313D600D60BCE2E83120313C5
:102DA400081CD52ED62EE32E0130D6006508073C2C
:102DB400013EDE2E0310D60DFF3E031DDC2E560809
:102DC400DD04E701F92EE62EE72E00000130831220
:102DD4000313E70765306702031CF12EF22EF92E68
:102DE400831603130810831203130814732E081890
:102DF400FC2EFD2EE52E0130E50708306502031C8C
:102E0400042F052FB02E66085E3E84005D088313F0
:102E140080000130E60705306602031C122F132FD1
:102E2400AE2E8316031308108312031308146008CC
:102E34005F07D60061085607D7005E085707DC0015
:102E440062085C060319272F282F292F732E5F0889
:102E5400D600D7015E08D800D9015808D900D80196
:102E640056085804DA0057085904DB004130A3001F
:102E74002030A2000030A1000030A0005A08F00069
:102E84005B08F100F201F30100300A168A11912265
:102E94000A168A11730883120313A7007208A60086
:102EA4007108A5007008A4000A128A1598200A1651
:102EB4008A118312031355088400200883138000A9
:102EC400840A21088000840A22088000840A2308D6
:102ED40080006108D600D7016008D800D9015808DD
:102EE400D900D80156085804E30057085904E400EF
:102EF400E41F7D2F7E2FCB2FBF30BD008030BC0060
:102F04000030BB000030BA004130A3002030A200E2
:102F14000030A1000030A000FF306305F0007F30D6
:102F24006405F100F201F30100300A168A119122BE
:102F34000A168A11730883120313A7007208A600E5
:102F44007108A5007008A4000A128A1598200A16B0
:102F54008A11831203132308C1002208C000210828
:102F6400BF002008BE000A128A15BE240A168A1160
:102F740083120313540884003A0883178000840AD8
:102F84003B088000840A3C088000840A3D088000D5
:102F9400FE2F4130A3002030A2000030A1000030F9
:102FA400A0006308F0006408F100F201F3010030AE
:102FB4000A168A1191220A168A11730883120313BE
:102FC400A7007208A6007108A5007008A4000A12E0
:102FD4008A1598200A168A11831203135408840050
:102FE400200883178000840A21088000840A2208AC
:102FF4008000840A230880000130080025347534D9
:103004002C3425343034323475342F342534303470
:10301400323475342F34323430342534303432344D
:1030240075342C3425343034323475343A34253400
:103034003034323475343A342534303432347534DF
:103044002C34253464342C34253464340D340A345B
:103054000034493444342C3446346534633468349D
:1030640061342C3448346F34723461342C34543425
:1030740065346D34703443342C34483475346D34D1
:103084000D340A34003425343034323475343A344F
:103094002534303432347534203454343A342534BD
:1030A4006434203448343A342534643420342034AD
:1030B4000034203420342034253430343234753410
:1030C4003A3425343034323475343A342534303497
:1030D4003234753420342034203400342034203405
:1030E40025343034323475342F342534303432348A
:1030F40075342F343234303425343034323475342A
:10310400203420340034463469346E3461346C34F1
:1031140069347A34613464346F3420342034203494
:103124002034203420340034533444342034523492
:1031340045345434493452344134443441342034D1
:103144002034203420342034003454343A342534A8
:10315400643443342034203448343A3425346434D9
:103164002534253420342034203400345334693455
:103174007334743465346D346134203450347234AF
:103184006F346E346F34733474342E3400344634F4
:1031940049344E3420342034203420342034203434
:1031A400203420342034203420342034003450346B
:1031B40072346F3478343A34253475346D34693468
:1031C4006E3420342034203420342034003420342D
:1031D4002034203447345534413452344434413457
:1031E40044344F34213420342034203400345434D3
:1031F4003A342D342D3443342034203448343A3492
:103204002D342D34253420342034203400344934F2
:103214006E3469346334693461346E3464346F34C5
:103224002034533444342E342E342E340034523467
:10323400653467343A34253475342F3437343234B2
:103244002034203420342034203400344D34653488
:10325400743465346F3472346F346C346F3467345F
:10326400693463346F34003436346834203443347E
:103274004F344D3450344C34453454344134533445
:103284000034463469346E3461346C3469347A34CD
:10329400613464346F3400344534523452344F341E
:1032A40052343A34203453344434003453344434A0
:1032B40020344F344B3421340034FF1B69298313E9
:1032C4007F1883170008840A0319FF0A08007F087F
:0E32D4007F398A000408840A0319FF0A820069
:10363A0064008001840A04060319003404061E2B60
:10364A000A168A154E230A168A15831603131114AD
:10365A0008000A168A154E230A168A1583160313BA
:10366A0011150800F0000A168A154E230A168A1543
:10367A00700883120313930008008316031386123B
:10368A00061286110615831203138616061286156C
:10369A0008008316031311081F39031D552B562BD7
:1036AA004E2B1419592B5A2B4E2B08008316031331
:1036BA008715071628308312031394008316031301
:1036CA0091013130930094010800F71B6D2B6E2B8A
:1036DA006F2B7A2B7609F8007709F900F80A031993
:1036EA00F90A7808F6007908F7000800F200F101F3
:1036FA00721C802B812B832B7008F1070310F00DAD
:10370A000310F20C7208031D8B2B8C2B7D2B710876
:10371A0008008316031308108312031308141A30BF
:10372A00F2005E30F1006E30F000F00B9A2BF10BD4
:10373A009A2BF20B9A2B00000800F4008312031351
:10374A0087127408F20004300310F20CFF3E031DC6
:10375A00A92B72080A168A1507260A168A157408EA
:10376A000F390A168A1507260A168A150D30F3002C
:10377A00FB30F200F20BBF2BF30BBF2BC42B08005C
:10378A00F4008312031387167408F200043003103E
:10379A00F20CFF3E031DCC2B72080A168A15072667
:1037AA000A168A1574080F390A168A1507260A1680
:1037BA008A150D30F300FB30F200F20BE22BF30B0B
:1037CA00E22BE72B0800F0000A168A154E230A1688
:1037DA008A158316031391150A168A154E230A169B
:1037EA008A15831203131308F1000A168A154E2349
:1037FA000A168A157018022C062C831603139116C2
:10380A00092C831603139112111671080800700807
:10381A00F2007108F300172C0130F0070318F10ABF
:10382A000030F107710883120313FF007008840047
:10383A000A168A155F210A168A15003A031D262CD4
:10384A00272C112C72087002F0007308031C730AEB
:10385A007102F1000800F401F501701C352C362CB8
:10386A003C2C7208F4070318F50A7308F5070130AF
:10387A000310F20DF30DFF3E031D3D2C0130031022
:10388A00F10CF00CFF3E031D442C70087104031D5B
:10389A004F2C502C322C7508F1007408F0000800E7
:1038AA006A2C7608FF00750884000A168A155F21BB
:1038BA000A168A150A168A15C5230A168A150130A8
:1038CA00F5070318F60A0030F60776088312031381
:1038DA00FF00750884000A168A155F210A168A15E0
:1038EA00003A031D792C7A2C562C0800F800F401B2
:1038FA00F5017008F200F3017208F6007308F70088
:10390A00781C882C892C8F2C7608F4070318F50A62
:10391A007708F50701300310F60DF70DFF3E031D7A
:10392A00902C0310F80C7808031D9C2C9D2C852CD8
:10393A007508F1007408F0000800831203134C089C
:10394A00CF004D08D000B62C4A08BB004B08BC007B
:10395A004F30BD004E08BE000A128A1123200A16F3
:10396A008A15831203135008FF004F0884000A16B1
:10397A008A155F210A168A15003A031DC52CC62C22
:10398A00A92CCA01CB010800700871040319CE2CB6
:10399A00CF2CFC2C0130F400DB2C01300310F00D8D
:1039AA00F10DFF3E031DD32C0130F407F11FDE2C6D
:1039BA00DF2CD22C71087302031DE52C70087202E9
:1039CA00031CE82CE92CEF2C7008F2027108031C86
:1039DA00F303F30201300310F10CF00CFF3E031D58
:1039EA00F02C0130F402031DFB2CFC2CDF2C730895
:1039FA00F1007208F0000800F200F301F401F21B72
:103A0A00072D0B2D8312031386150E2D8312031314
:103A1A0086110310F20D06160330F000F00B132D79
:103A2A0083120313061D1A2D1B2D292D740AFF005C
:103A3A008030F0000030F100252D710DF10CF00CF2
:103A4A00FF0B222D7008F3048312031306120330AE
:103A5A00F000F00B2E2D0130F40708307402031C1D
:103A6A00372D382D042D73080800F501F60170086A
:103A7A0071040319412D422D772D0130F4004E2D8A
:103A8A0001300310F00DF10DFF3E031D462D0130EC
:103A9A00F407F11F512D522D452D01300310F50D5C
:103AAA00F60DFF3E031D532D71087302031D5F2D92
:103ABA0070087202031C622D632D6A2D7008F202CF
:103ACA007108031CF303F302751401300310F10C9F
:103ADA00F00CFF3E031D6B2D0130F402031D762D01
:103AEA00772D522D7608F1007508F0000800553040
:103AFA0083160313A30083120313510883160313B7
:103B0A00A40083120313520883160313A500A60107
:103B1A00A701AD01AE01A43083120313CA0000301D
:103B2A00CB005308CC005408CD00A330CE000A16AF
:103B3A008A15A2240A168A158316031326088312E5
:103B4A000313510783160313A100831203135208A8
:103B5A0083160313A0000318A00AA61FB52DA003FD
:103B6A00831603132008A200210884008317221C4D
:103B7A008313800108000A168A1525230A168A1556
:103B8A00D0300A168A1537230A168A1500300A1603
:103B9A008A1537230A168A150A168A1525230A163C
:103BAA008A15D1300A168A1537230A168A15013062
:103BBA000A168A15E8230A168A15F2000A168A15C1
:103BCA002E230A168A157F30F2050A168A1525232E
:103BDA000A168A15D0300A168A1537230A168A1544
:103BEA0000300A168A1537230A168A1572080A1629
:103BFA008A1537230A168A150A168A152E230A16D3
:103C0A008A150800F10071180B2E0F2E8312031368
:103C1A000816122E8312031308127108F0000130DD
:103C2A000310F00CFF3E031D152E70181D2E212EB9
:103C3A00831203138816242E831203138812710821
:103C4A00F00002300310F00CFF3E031D272E7018FF
:103C5A002F2E332E831203130817362E83120313C3
:103C6A0008137108F00003300310F00CFF3E031D27
:103C7A00392E7018412E452E831203138817482EA9
:103C8A0083120313881307175330F000F00B4B2EDF
:103C9A008312031307135330F000F00B522E08005F
:103CAA000A168A1525230A168A15D0300A168A1585
:103CBA0037230A168A1504300A168A1537230A1674
:103CCA008A150A168A1525230A168A15D1300A1664
:103CDA008A1537230A168A157608840000300A16D0
:103CEA008A15E8230A168A150A128A110D200A165D
:103CFA008A15831780007708840000300A168A150F
:103D0A00E8230A168A150A128A110D200A168A153C
:103D1A00831780007808840001300A168A15E82380
:103D2A000A168A150A128A110D200A168A1583178D
:103D3A0080000A168A152E230A168A1508000A1602
:103D4A008A1525230A168A15D0300A168A153723AA
:103D5A000A168A1500300A168A1537230A168A1592
:103D6A000A168A1525230A168A15D1300A168A15C3
:103D7A0037230A168A157808840000300A168A152D
:103D8A00E8230A168A150A128A110D200A168A15BC
:103D9A00831780007708840000300A168A15E82302
:103DAA000A168A150A128A110D200A168A1583170D
:103DBA0080007608840001300A168A15E8230A165C
:103DCA008A150A128A110D200A168A15831780008D
:103DDA000A168A152E230A168A1508008312031357
:103DEA006F1CF82EF92E042F2A08A0002808A1001B
:103DFA002908A2000A168A1100200A168A158312B7
:103E0A000313AC1F092F0A2F0C2FAB01AC01AD0114
:103E1A00AE01262F2030F0000030F1008312031388
:103E2A002808F2002908F3000A168A11F7210A164F
:103E3A008A15013083120313AD070318AE0A003046
:103E4A00AE072E08803AFD002C08803A7D02031D39
:103E5A00302F2B082D02031C332F342F0F2F8312E0
:103E6A0003136F18392F3A2F452F2A08A000280864
:103E7A00A1002908A2000A168A1100200A168A152A
:103E8A000800F501F31F4A2F4B2F522FF209F309AD
:103E9A00F20A0319F30A0130F500F11F552F562FC4
:103EAA005B2FF009F109F00A0319F10A700871048D
:103EBA000319602F612F8E2F0130F4006D2F01300E
:103ECA000310F00DF10DFF3E031D652F0130F407BD
:103EDA00F11F702F712F642F71087302031D772F42
:103EEA0070087202031C7A2F7B2F812F7008F2024E
:103EFA007108031CF303F30201300310F10CF00CF8
:103F0A00FF3E031D822F0130F402031D8D2F8E2FD9
:103F1A00712F75080319922F932F982FF209F3091D
:103F2A00F20A0319F30A7308F1007208F000080094
:103F3A00F501F11FA12FA22FA92FF009F109F00A0B
:103F4A000319F10A0130F500F31FAC2FAD2FB42F7E
:103F5A00F209F309F20A0319F30A0130F506F60128
:103F6A00F701700871040319BB2FBC2FF12F013020
:103F7A00F400C82F01300310F00DF10DFF3E031DB0
:103F8A00C02F0130F407F11FCB2FCC2FBF2F0130E8
:103F9A000310F60DF70DFF3E031DCD2F71087302B6
:103FAA00031DD92F70087202031CDC2FDD2FE42FAA
:103FBA007008F2027108031CF303F302761401304D
:103FCA000310F10CF00CFF3E031DE52F0130F40243
:103FDA00031DF02FF12FCC2F75080319F52FF62F9B
:103FEA00FB2FF609F709F60A0319F70A7708F10011
:063FFA007608F00008004B
:04400E00E220FF3F6E
:00000001FF
